{
  "contractName": "ApproveAndCallFallBack",
  "abi": [
    {
      "constant": true,
      "inputs": [
        {
          "name": "from",
          "type": "address"
        },
        {
          "name": "tokens",
          "type": "uint256"
        },
        {
          "name": "token",
          "type": "address"
        },
        {
          "name": "data",
          "type": "bytes"
        }
      ],
      "name": "data",
      "outputs": [
        {
          "name": "",
          "type": "bytes"
        }
      ],
      "payable": false,
      "stateMutability": "view",
      "type": "function"
    },
    {
      "constant": false,
      "inputs": [
        {
          "name": "_from",
          "type": "address"
        },
        {
          "name": "_tokens",
          "type": "uint256"
        },
        {
          "name": "_token",
          "type": "address"
        },
        {
          "name": "_data",
          "type": "bytes"
        }
      ],
      "name": "receiveApproval",
      "outputs": [],
      "payable": false,
      "stateMutability": "nonpayable",
      "type": "function"
    },
    {
      "constant": true,
      "inputs": [],
      "name": "tokens",
      "outputs": [
        {
          "name": "",
          "type": "uint256"
        }
      ],
      "payable": false,
      "stateMutability": "view",
      "type": "function"
    },
    {
      "constant": true,
      "inputs": [],
      "name": "from",
      "outputs": [
        {
          "name": "",
          "type": "address"
        }
      ],
      "payable": false,
      "stateMutability": "view",
      "type": "function"
    },
    {
      "constant": true,
      "inputs": [],
      "name": "token",
      "outputs": [
        {
          "name": "",
          "type": "address"
        }
      ],
      "payable": false,
      "stateMutability": "view",
      "type": "function"
    }
  ],
  "bytecode": "0x6060604052341561000f57600080fd5b6104dc8061001e6000396000f30060606040526004361061006d576000357c0100000000000000000000000000000000000000000000000000000000900463ffffffff16806373d4a13a146100725780638f4ffcb1146101005780639d63848a146101a4578063d5ce3389146101cd578063fc0c546a14610222575b600080fd5b341561007d57600080fd5b610085610277565b6040518080602001828103825283818151815260200191508051906020019080838360005b838110156100c55780820151818401526020810190506100aa565b50505050905090810190601f1680156100f25780820380516001836020036101000a031916815260200191505b509250505060405180910390f35b341561010b57600080fd5b6101a2600480803573ffffffffffffffffffffffffffffffffffffffff1690602001909190803590602001909190803573ffffffffffffffffffffffffffffffffffffffff1690602001909190803590602001908201803590602001908080601f01602080910402602001604051908101604052809392919081815260200183838082843782019150505050505091905050610315565b005b34156101af57600080fd5b6101b76103ba565b6040518082815260200191505060405180910390f35b34156101d857600080fd5b6101e06103c0565b604051808273ffffffffffffffffffffffffffffffffffffffff1673ffffffffffffffffffffffffffffffffffffffff16815260200191505060405180910390f35b341561022d57600080fd5b6102356103e5565b604051808273ffffffffffffffffffffffffffffffffffffffff1673ffffffffffffffffffffffffffffffffffffffff16815260200191505060405180910390f35b60038054600181600116156101000203166002900480601f01602080910402602001604051908101604052809291908181526020018280546001816001161561010002031660029004801561030d5780601f106102e25761010080835404028352916020019161030d565b820191906000526020600020905b8154815290600101906020018083116102f057829003601f168201915b505050505081565b836000806101000a81548173ffffffffffffffffffffffffffffffffffffffff021916908373ffffffffffffffffffffffffffffffffffffffff1602179055508260018190555081600260006101000a81548173ffffffffffffffffffffffffffffffffffffffff021916908373ffffffffffffffffffffffffffffffffffffffff16021790555080600390805190602001906103b392919061040b565b5050505050565b60015481565b6000809054906101000a900473ffffffffffffffffffffffffffffffffffffffff1681565b600260009054906101000a900473ffffffffffffffffffffffffffffffffffffffff1681565b828054600181600116156101000203166002900490600052602060002090601f016020900481019282601f1061044c57805160ff191683800117855561047a565b8280016001018555821561047a579182015b8281111561047957825182559160200191906001019061045e565b5b509050610487919061048b565b5090565b6104ad91905b808211156104a9576000816000905550600101610491565b5090565b905600a165627a7a723058201db580cbf0140268b6f98992d3901264a6157feee9396f82c76780c9006293500029",
  "source": "pragma solidity ^0.4.4;\r\n\r\ncontract ApproveAndCallFallBack {\r\n\r\n    address public from;                  \r\n    uint256 public tokens;                \r\n    address public token;                 \r\n    bytes public data; \r\n\r\n    function receiveApproval(address _from, uint256 _tokens, address _token, bytes _data) public {\r\n        from = _from;\r\n        tokens = _tokens;\r\n        token = _token;\r\n        data = _data;\r\n    }\r\n}\r\ncontract BenToken {\r\n\r\n    function () public payable {\r\n        //if ether is sent to this address, send it back.\r\n        revert();\r\n    }\r\n\r\n    /* Public variables of the token */\r\n    uint256 public totalSupply;   \r\n    string public name;                  \r\n    uint8 public decimals;                \r\n    string public symbol;                 \r\n    string public version = \"v1.0\"; \r\n\r\n    mapping (address => uint256) balances;\r\n    mapping (address => mapping (address => uint256)) allowed;\r\n\r\n    event Transfer(address indexed from, address indexed to, uint tokens);\r\n    event Approval(address indexed tokenOwner, address indexed spender, uint tokens);\r\n    \r\n    function BenToken() public {     \r\n        // Create initial Token supply & properties\r\n        totalSupply = 1000000;      \r\n        name = \"BenToken\";                                   \r\n        decimals = 0;                            \r\n        symbol = \"BENT\";     \r\n\r\n        // Send half the tokens to the initial caller\r\n        balances[msg.sender] = 500000;\r\n        Transfer(address(0), msg.sender, totalSupply);                          \r\n    }\r\n\r\n    function transfer(address _to, uint256 _value) public returns (bool success) {\r\n        //Default assumes totalSupply can't be over max (2^256 - 1).\r\n        //If your token leaves out totalSupply and can issue more tokens as time goes on, you need to check if it doesn't wrap.\r\n        //Replace the if with this one instead.\r\n        //if (balances[msg.sender] >= _value && balances[_to] + _value > balances[_to]) {\r\n        if (balances[msg.sender] >= _value && _value > 0) {\r\n            balances[msg.sender] -= _value;\r\n            balances[_to] += _value;\r\n            Transfer(msg.sender, _to, _value);\r\n            return true;\r\n        } else { \r\n            return false; \r\n        }\r\n    }\r\n\r\n    function transferFrom(address _from, address _to, uint256 _value) public returns (bool success) {\r\n        //same as above. Replace this line with the following if you want to protect against wrapping uints.\r\n        //if (balances[_from] >= _value && allowed[_from][msg.sender] >= _value && balances[_to] + _value > balances[_to]) {\r\n        if (balances[_from] >= _value && allowed[_from][msg.sender] >= _value && _value > 0) {\r\n            balances[_to] += _value;\r\n            balances[_from] -= _value;\r\n            allowed[_from][msg.sender] -= _value;\r\n            Transfer(_from, _to, _value);\r\n            return true;\r\n        } else { \r\n            return false; \r\n        }\r\n    }\r\n\r\n    function balanceOf(address _owner) public constant returns (uint256 balance) {\r\n        return balances[_owner];\r\n    }\r\n\r\n    function approve(address _spender, uint256 _value) public returns (bool success) {\r\n        allowed[msg.sender][_spender] = _value;\r\n        Approval(msg.sender, _spender, _value);\r\n        return true;\r\n    }\r\n\r\n    function allowance(address _owner, address _spender) public constant returns (uint256 remaining) {\r\n      return allowed[_owner][_spender];\r\n    }\r\n\r\n    /* Approves and then calls the receiving contract */\r\n    function approveAndCall(address _spender, uint256 _value, bytes _extraData) public returns (bool success) {\r\n        allowed[msg.sender][_spender] = _value;\r\n        Approval(msg.sender, _spender, _value);\r\n        ApproveAndCallFallBack(_spender).receiveApproval(msg.sender, _value, this, _extraData);\r\n        \r\n        //call the receiveApproval function on the contract you want to be notified. This crafts the function signature manually so one doesn't have to include a contract in here just for this.\r\n        //receiveApproval(address _from, uint256 _value, address _tokenContract, bytes _extraData)\r\n        //it is assumed that when does this that the call *should* succeed, otherwise one would use vanilla approve instead.\r\n        // if (!_spender.call(bytes4(bytes32(sha3(\"receiveApproval(address,uint256,address,bytes)\"))), msg.sender, _value, this, _extraData)) { \r\n        //     throw; \r\n        // }\r\n        return true;\r\n    }\r\n}",
  "sourcePath": "C:\\dev\\eth-test\\angular-client\\src\\solidity\\contracts\\BenToken.sol",
  "compiler": {
    "name": "solc",
    "version": "0.4.18+commit.9cf6e910.Emscripten.clang"
  },
  "schemaVersion": "1.0.1",
  "updatedAt": "2018-03-02T05:38:53.237Z"
}