{
  "contractName": "AssetTransfer",
  "abi": [
    {
      "constant": false,
      "inputs": [],
      "name": "terminate",
      "outputs": [],
      "payable": false,
      "stateMutability": "nonpayable",
      "type": "function"
    },
    {
      "constant": false,
      "inputs": [],
      "name": "accept",
      "outputs": [],
      "payable": false,
      "stateMutability": "nonpayable",
      "type": "function"
    },
    {
      "constant": false,
      "inputs": [],
      "name": "rescindOffer",
      "outputs": [],
      "payable": false,
      "stateMutability": "nonpayable",
      "type": "function"
    },
    {
      "constant": false,
      "inputs": [],
      "name": "reject",
      "outputs": [],
      "payable": false,
      "stateMutability": "nonpayable",
      "type": "function"
    },
    {
      "constant": true,
      "inputs": [],
      "name": "OfferPrice",
      "outputs": [
        {
          "name": "",
          "type": "uint256"
        }
      ],
      "payable": false,
      "stateMutability": "view",
      "type": "function"
    },
    {
      "constant": true,
      "inputs": [],
      "name": "Description",
      "outputs": [
        {
          "name": "",
          "type": "string"
        }
      ],
      "payable": false,
      "stateMutability": "view",
      "type": "function"
    },
    {
      "constant": false,
      "inputs": [],
      "name": "markInspected",
      "outputs": [],
      "payable": false,
      "stateMutability": "nonpayable",
      "type": "function"
    },
    {
      "constant": false,
      "inputs": [],
      "name": "markAppraised",
      "outputs": [],
      "payable": false,
      "stateMutability": "nonpayable",
      "type": "function"
    },
    {
      "constant": true,
      "inputs": [],
      "name": "Buyer",
      "outputs": [
        {
          "name": "",
          "type": "address"
        }
      ],
      "payable": false,
      "stateMutability": "view",
      "type": "function"
    },
    {
      "constant": true,
      "inputs": [],
      "name": "Owner",
      "outputs": [
        {
          "name": "",
          "type": "address"
        }
      ],
      "payable": false,
      "stateMutability": "view",
      "type": "function"
    },
    {
      "constant": false,
      "inputs": [
        {
          "name": "description",
          "type": "string"
        },
        {
          "name": "price",
          "type": "uint256"
        }
      ],
      "name": "modify",
      "outputs": [],
      "payable": false,
      "stateMutability": "nonpayable",
      "type": "function"
    },
    {
      "constant": false,
      "inputs": [],
      "name": "acceptOffer",
      "outputs": [],
      "payable": false,
      "stateMutability": "nonpayable",
      "type": "function"
    },
    {
      "constant": false,
      "inputs": [
        {
          "name": "offerPrice",
          "type": "uint256"
        }
      ],
      "name": "modifyOffer",
      "outputs": [],
      "payable": false,
      "stateMutability": "nonpayable",
      "type": "function"
    },
    {
      "constant": true,
      "inputs": [],
      "name": "AskingPrice",
      "outputs": [
        {
          "name": "",
          "type": "uint256"
        }
      ],
      "payable": false,
      "stateMutability": "view",
      "type": "function"
    },
    {
      "constant": false,
      "inputs": [
        {
          "name": "inspector",
          "type": "address"
        },
        {
          "name": "appraiser",
          "type": "address"
        },
        {
          "name": "offerPrice",
          "type": "uint256"
        }
      ],
      "name": "makeOffer",
      "outputs": [],
      "payable": false,
      "stateMutability": "nonpayable",
      "type": "function"
    },
    {
      "constant": true,
      "inputs": [],
      "name": "State",
      "outputs": [
        {
          "name": "",
          "type": "uint8"
        }
      ],
      "payable": false,
      "stateMutability": "view",
      "type": "function"
    },
    {
      "constant": true,
      "inputs": [],
      "name": "Inspector",
      "outputs": [
        {
          "name": "",
          "type": "address"
        }
      ],
      "payable": false,
      "stateMutability": "view",
      "type": "function"
    },
    {
      "constant": true,
      "inputs": [],
      "name": "Appraiser",
      "outputs": [
        {
          "name": "",
          "type": "address"
        }
      ],
      "payable": false,
      "stateMutability": "view",
      "type": "function"
    },
    {
      "inputs": [
        {
          "name": "description",
          "type": "string"
        },
        {
          "name": "price",
          "type": "uint256"
        }
      ],
      "payable": false,
      "stateMutability": "nonpayable",
      "type": "constructor"
    }
  ],
  "bytecode": "0x606060405234156200001057600080fd5b604051620012e3380380620012e38339810160405280805182019190602001805190602001909190505033600060016101000a81548173ffffffffffffffffffffffffffffffffffffffff021916908373ffffffffffffffffffffffffffffffffffffffff1602179055508060028190555081600190805190602001906200009a929190620000c7565b5060016000806101000a81548160ff0219169083600b811115620000ba57fe5b0217905550505062000176565b828054600181600116156101000203166002900490600052602060002090601f016020900481019282601f106200010a57805160ff19168380011785556200013b565b828001600101855582156200013b579182015b828111156200013a5782518255916020019190600101906200011d565b5b5090506200014a91906200014e565b5090565b6200017391905b808211156200016f57600081600090555060010162000155565b5090565b90565b61115d80620001866000396000f3006060604052600436106100fc576000357c0100000000000000000000000000000000000000000000000000000000900463ffffffff1680630c08bf88146101015780632852b71c14610116578063406455e61461012b5780634dc415de1461014057806353070152146101555780638191745f1461017e578063824079111461020c5780639230409814610221578063a1c12e6b14610236578063b4a99a4e1461028b578063c33f665e146102e0578063eb62df6114610346578063ebe928601461035b578063ec69f29f1461037e578063f1527680146103a7578063f1b6dccd14610408578063f35357641461043f578063f516988314610494575b600080fd5b341561010c57600080fd5b6101146104e9565b005b341561012157600080fd5b61012961056a565b005b341561013657600080fd5b61013e610861565b005b341561014b57600080fd5b61015361092c565b005b341561016057600080fd5b6101686109ad565b6040518082815260200191505060405180910390f35b341561018957600080fd5b6101916109b3565b6040518080602001828103825283818151815260200191508051906020019080838360005b838110156101d15780820151818401526020810190506101b6565b50505050905090810190601f1680156101fe5780820380516001836020036101000a031916815260200191505b509250505060405180910390f35b341561021757600080fd5b61021f610a51565b005b341561022c57600080fd5b610234610b56565b005b341561024157600080fd5b610249610c5b565b604051808273ffffffffffffffffffffffffffffffffffffffff1673ffffffffffffffffffffffffffffffffffffffff16815260200191505060405180910390f35b341561029657600080fd5b61029e610c81565b604051808273ffffffffffffffffffffffffffffffffffffffff1673ffffffffffffffffffffffffffffffffffffffff16815260200191505060405180910390f35b34156102eb57600080fd5b610344600480803590602001908201803590602001908080601f01602080910402602001604051908101604052809392919081815260200183838082843782019150505050505091908035906020019091905050610ca7565b005b341561035157600080fd5b610359610d25565b005b341561036657600080fd5b61037c6004808035906020019091905050610dd6565b005b341561038957600080fd5b610391610e47565b6040518082815260200191505060405180910390f35b34156103b257600080fd5b610406600480803573ffffffffffffffffffffffffffffffffffffffff1690602001909190803573ffffffffffffffffffffffffffffffffffffffff16906020019091908035906020019091905050610e4d565b005b341561041357600080fd5b61041b61102e565b6040518082600b81111561042b57fe5b60ff16815260200191505060405180910390f35b341561044a57600080fd5b610452611040565b604051808273ffffffffffffffffffffffffffffffffffffffff1673ffffffffffffffffffffffffffffffffffffffff16815260200191505060405180910390f35b341561049f57600080fd5b6104a7611066565b604051808273ffffffffffffffffffffffffffffffffffffffff1673ffffffffffffffffffffffffffffffffffffffff16815260200191505060405180910390f35b3373ffffffffffffffffffffffffffffffffffffffff16600060019054906101000a900473ffffffffffffffffffffffffffffffffffffffff1673ffffffffffffffffffffffffffffffffffffffff1614151561054557600080fd5b600b6000806101000a81548160ff0219169083600b81111561056357fe5b0217905550565b600360009054906101000a900473ffffffffffffffffffffffffffffffffffffffff1673ffffffffffffffffffffffffffffffffffffffff163373ffffffffffffffffffffffffffffffffffffffff16141580156106165750600060019054906101000a900473ffffffffffffffffffffffffffffffffffffffff1673ffffffffffffffffffffffffffffffffffffffff163373ffffffffffffffffffffffffffffffffffffffff1614155b1561062057600080fd5b6006600b81111561062d57fe5b6000809054906101000a900460ff16600b81111561064757fe5b1415801561067a57506007600b81111561065d57fe5b6000809054906101000a900460ff16600b81111561067757fe5b14155b80156106ab57506008600b81111561068e57fe5b6000809054906101000a900460ff16600b8111156106a857fe5b14155b156106b557600080fd5b600360009054906101000a900473ffffffffffffffffffffffffffffffffffffffff1673ffffffffffffffffffffffffffffffffffffffff163373ffffffffffffffffffffffffffffffffffffffff1614156107b7576006600b81111561071857fe5b6000809054906101000a900460ff16600b81111561073257fe5b14156107605760076000806101000a81548160ff0219169083600b81111561075657fe5b02179055506107b2565b6008600b81111561076d57fe5b6000809054906101000a900460ff16600b81111561078757fe5b14156107b15760096000806101000a81548160ff0219169083600b8111156107ab57fe5b02179055505b5b61085f565b6006600b8111156107c457fe5b6000809054906101000a900460ff16600b8111156107de57fe5b141561080c5760086000806101000a81548160ff0219169083600b81111561080257fe5b021790555061085e565b6007600b81111561081957fe5b6000809054906101000a900460ff16600b81111561083357fe5b141561085d5760096000806101000a81548160ff0219169083600b81111561085757fe5b02179055505b5b5b565b3373ffffffffffffffffffffffffffffffffffffffff16600360009054906101000a900473ffffffffffffffffffffffffffffffffffffffff1673ffffffffffffffffffffffffffffffffffffffff161415156108bd57600080fd5b6000600360006101000a81548173ffffffffffffffffffffffffffffffffffffffff021916908373ffffffffffffffffffffffffffffffffffffffff160217905550600060048190555060016000806101000a81548160ff0219169083600b81111561092557fe5b0217905550565b3373ffffffffffffffffffffffffffffffffffffffff16600060019054906101000a900473ffffffffffffffffffffffffffffffffffffffff1673ffffffffffffffffffffffffffffffffffffffff1614151561098857600080fd5b60016000806101000a81548160ff0219169083600b8111156109a657fe5b0217905550565b60045481565b60018054600181600116156101000203166002900480601f016020809104026020016040519081016040528092919081815260200182805460018160011615610100020316600290048015610a495780601f10610a1e57610100808354040283529160200191610a49565b820191906000526020600020905b815481529060010190602001808311610a2c57829003601f168201915b505050505081565b3373ffffffffffffffffffffffffffffffffffffffff16600560009054906101000a900473ffffffffffffffffffffffffffffffffffffffff1673ffffffffffffffffffffffffffffffffffffffff16141515610aad57600080fd5b6003600b811115610aba57fe5b6000809054906101000a900460ff16600b811115610ad457fe5b1415610b025760046000806101000a81548160ff0219169083600b811115610af857fe5b0217905550610b54565b6005600b811115610b0f57fe5b6000809054906101000a900460ff16600b811115610b2957fe5b1415610b535760066000806101000a81548160ff0219169083600b811115610b4d57fe5b02179055505b5b565b3373ffffffffffffffffffffffffffffffffffffffff16600660009054906101000a900473ffffffffffffffffffffffffffffffffffffffff1673ffffffffffffffffffffffffffffffffffffffff16141515610bb257600080fd5b6003600b811115610bbf57fe5b6000809054906101000a900460ff16600b811115610bd957fe5b1415610c075760056000806101000a81548160ff0219169083600b811115610bfd57fe5b0217905550610c59565b6004600b811115610c1457fe5b6000809054906101000a900460ff16600b811115610c2e57fe5b1415610c585760066000806101000a81548160ff0219169083600b811115610c5257fe5b02179055505b5b565b600360009054906101000a900473ffffffffffffffffffffffffffffffffffffffff1681565b600060019054906101000a900473ffffffffffffffffffffffffffffffffffffffff1681565b3373ffffffffffffffffffffffffffffffffffffffff16600060019054906101000a900473ffffffffffffffffffffffffffffffffffffffff1673ffffffffffffffffffffffffffffffffffffffff16141515610d0357600080fd5b8160019080519060200190610d1992919061108c565b50806002819055505050565b3373ffffffffffffffffffffffffffffffffffffffff16600060019054906101000a900473ffffffffffffffffffffffffffffffffffffffff1673ffffffffffffffffffffffffffffffffffffffff16141580610da757506002600b811115610d8a57fe5b6000809054906101000a900460ff16600b811115610da457fe5b14155b15610db157600080fd5b60036000806101000a81548160ff0219169083600b811115610dcf57fe5b0217905550565b3373ffffffffffffffffffffffffffffffffffffffff16600360009054906101000a900473ffffffffffffffffffffffffffffffffffffffff1673ffffffffffffffffffffffffffffffffffffffff16141580610e335750600081145b15610e3d57600080fd5b8060048190555050565b60025481565b60008373ffffffffffffffffffffffffffffffffffffffff161480610e88575060008273ffffffffffffffffffffffffffffffffffffffff16145b80610e935750600081145b15610e9d57600080fd5b6000600360009054906101000a900473ffffffffffffffffffffffffffffffffffffffff1673ffffffffffffffffffffffffffffffffffffffff16141580610f3257503373ffffffffffffffffffffffffffffffffffffffff16600060019054906101000a900473ffffffffffffffffffffffffffffffffffffffff1673ffffffffffffffffffffffffffffffffffffffff16145b15610f3c57600080fd5b33600360006101000a81548173ffffffffffffffffffffffffffffffffffffffff021916908373ffffffffffffffffffffffffffffffffffffffff16021790555082600560006101000a81548173ffffffffffffffffffffffffffffffffffffffff021916908373ffffffffffffffffffffffffffffffffffffffff16021790555081600660006101000a81548173ffffffffffffffffffffffffffffffffffffffff021916908373ffffffffffffffffffffffffffffffffffffffff1602179055508060048190555060026000806101000a81548160ff0219169083600b81111561102457fe5b0217905550505050565b6000809054906101000a900460ff1681565b600560009054906101000a900473ffffffffffffffffffffffffffffffffffffffff1681565b600660009054906101000a900473ffffffffffffffffffffffffffffffffffffffff1681565b828054600181600116156101000203166002900490600052602060002090601f016020900481019282601f106110cd57805160ff19168380011785556110fb565b828001600101855582156110fb579182015b828111156110fa5782518255916020019190600101906110df565b5b509050611108919061110c565b5090565b61112e91905b8082111561112a576000816000905550600101611112565b5090565b905600a165627a7a7230582074529e0f18524094834b46edf647702e0c05d441f0accd745f29941038b626d20029",
  "source": "pragma solidity ^0.4.10;\r\n\r\ncontract AssetTransfer {\r\n\r\n    enum AssetState { Created, Active, OfferPlaced, PendingInspection, Inspected, Appraised, NotionalAcceptance, BuyerAccepted, SellerAccepted, Accepted, Complete, Terminated }\r\n    AssetState public State;\r\n   \r\n    address public Owner;\r\n    string public Description;\r\n    uint public AskingPrice;\r\n    \r\n    address public Buyer;\r\n    uint public OfferPrice;\r\n    address public Inspector;\r\n    address public Appraiser;\r\n\r\n    function AssetTransfer(string description, uint256 price) public {\r\n        Owner = msg.sender;\r\n        AskingPrice = price;\r\n        Description = description;\r\n        State = AssetState.Active;\r\n    }\r\n\r\n    function terminate() public {\r\n        if (Owner != msg.sender) {\r\n            revert();\r\n        }\r\n        State = AssetState.Terminated;\r\n    }\r\n\r\n    function modify(string description, uint256 price) public {\r\n        if (Owner != msg.sender) {\r\n            revert();\r\n        }\r\n        Description = description;\r\n        AskingPrice = price;\r\n    }\r\n\r\n    function makeOffer(address inspector, address appraiser, uint256 offerPrice) public {\r\n        if (inspector == 0x0 || appraiser == 0x0 || offerPrice == 0) {\r\n            revert();\r\n        }\r\n\r\n        if (Buyer != 0x0 || Owner == msg.sender) { \r\n            revert();\r\n        }\r\n        \r\n        Buyer = msg.sender;\r\n        Inspector = inspector;\r\n        Appraiser = appraiser;\r\n        OfferPrice = offerPrice;\r\n        State = AssetState.OfferPlaced;\r\n    }\r\n\r\n    function modifyOffer(uint256 offerPrice) public {\r\n        if (Buyer != msg.sender || offerPrice == 0) {\r\n            revert();\r\n        }\r\n        OfferPrice = offerPrice;\r\n    }\r\n\r\n    function acceptOffer() public {\r\n        if (Owner != msg.sender || State != AssetState.OfferPlaced) {\r\n            revert();\r\n        }\r\n        State = AssetState.PendingInspection;\r\n    }\r\n\r\n    function reject() public {\r\n        if (Owner != msg.sender) {\r\n            revert();\r\n        }\r\n\t\tState = AssetState.Active;\r\n\t}\r\n\r\n    function rescindOffer() public {\r\n        if (Buyer != msg.sender) {\r\n            revert();\r\n        }\r\n\r\n        Buyer = 0x0;\r\n        OfferPrice = 0;\r\n        State = AssetState.Active;\r\n    }\r\n\r\n    function markAppraised() public {\r\n        if (Appraiser != msg.sender) {\r\n            revert();\r\n        }\r\n        if (State == AssetState.PendingInspection) {\r\n            State = AssetState.Appraised;\r\n        } else if (State == AssetState.Inspected) {\r\n            State = AssetState.NotionalAcceptance;\r\n        }\r\n    }\r\n\r\n    function markInspected() public {\r\n        if (Inspector != msg.sender) {\r\n            revert();\r\n        }\r\n        if (State == AssetState.PendingInspection) {\r\n            State = AssetState.Inspected;\r\n        } else if (State == AssetState.Appraised) {\r\n            State = AssetState.NotionalAcceptance;\r\n        }\r\n    }\r\n\r\n    function accept() public {\r\n\t\tif (msg.sender != Buyer && msg.sender != Owner) {\r\n\t\t\trevert();\r\n\t\t}\r\n\t\t\r\n\t\tif (State != AssetState.NotionalAcceptance && State != AssetState.BuyerAccepted && State != AssetState.SellerAccepted) {\r\n\t\t\trevert();\r\n\t\t}\r\n\t\t\r\n\t\tif (msg.sender == Buyer) {\r\n\t\t\tif (State == AssetState.NotionalAcceptance) {\r\n\t\t\t\tState = AssetState.BuyerAccepted;\r\n\t\t\t} else if (State == AssetState.SellerAccepted) {\r\n\t\t\t\tState = AssetState.Accepted;\r\n\t\t\t}\r\n\t\t} else {\r\n\t\t\tif (State == AssetState.NotionalAcceptance) {\r\n\t\t\t\tState = AssetState.SellerAccepted;\r\n\t\t\t} else if (State == AssetState.BuyerAccepted) {\r\n\t\t\t\tState = AssetState.Accepted;\r\n\t\t\t}\r\n\t\t}\r\n    }\r\n}\r\n",
  "sourcePath": "C:\\dev\\eth-test\\angular-client\\src\\solidity\\contracts\\AssetTransfer.sol",
  "compiler": {
    "name": "solc",
    "version": "0.4.18+commit.9cf6e910.Emscripten.clang"
  },
  "schemaVersion": "1.0.1",
  "updatedAt": "2018-06-08T14:26:48.071Z"
}