{
  "contractName": "DemoContract",
  "abi": [
    {
      "constant": true,
      "inputs": [],
      "name": "getContractDetails",
      "outputs": [
        {
          "name": "",
          "type": "string"
        },
        {
          "name": "",
          "type": "string"
        },
        {
          "name": "",
          "type": "string"
        },
        {
          "name": "",
          "type": "string"
        },
        {
          "name": "",
          "type": "uint256"
        },
        {
          "name": "",
          "type": "string"
        },
        {
          "name": "",
          "type": "uint8"
        }
      ],
      "payable": false,
      "stateMutability": "view",
      "type": "function"
    },
    {
      "constant": false,
      "inputs": [],
      "name": "buyContract",
      "outputs": [
        {
          "name": "success",
          "type": "bool"
        }
      ],
      "payable": false,
      "stateMutability": "nonpayable",
      "type": "function"
    },
    {
      "inputs": [
        {
          "name": "_contractId",
          "type": "string"
        },
        {
          "name": "_title",
          "type": "string"
        },
        {
          "name": "_description",
          "type": "string"
        },
        {
          "name": "_strikerPrice",
          "type": "string"
        },
        {
          "name": "_timeWindow",
          "type": "uint256"
        },
        {
          "name": "_dateTime",
          "type": "string"
        }
      ],
      "payable": false,
      "stateMutability": "nonpayable",
      "type": "constructor"
    }
  ],
  "bytecode": "0x6060604052341561000f57600080fd5b60405161094c38038061094c8339810160405280805182019190602001805182019190602001805182019190602001805182019190602001805190602001909190805182019190505060c060405190810160405280878152602001868152602001858152602001848152602001838152602001828152506000808201518160000190805190602001906100a3929190610195565b5060208201518160010190805190602001906100c0929190610195565b5060408201518160020190805190602001906100dd929190610195565b5060608201518160030190805190602001906100fa929190610195565b506080820151816004015560a0820151816005019080519060200190610121929190610195565b5090505033600660006101000a81548173ffffffffffffffffffffffffffffffffffffffff021916908373ffffffffffffffffffffffffffffffffffffffff1602179055506000600760146101000a81548160ff0219169083600181111561018557fe5b021790555050505050505061023a565b828054600181600116156101000203166002900490600052602060002090601f016020900481019282601f106101d657805160ff1916838001178555610204565b82800160010185558215610204579182015b828111156102035782518255916020019190600101906101e8565b5b5090506102119190610215565b5090565b61023791905b8082111561023357600081600090555060010161021b565b5090565b90565b610703806102496000396000f30060606040526004361061004c576000357c0100000000000000000000000000000000000000000000000000000000900463ffffffff1680639dfc911714610051578063de866db1146102ab575b600080fd5b341561005c57600080fd5b6100646102d8565b60405180806020018060200180602001806020018881526020018060200187600181111561008e57fe5b60ff16815260200186810386528d818151815260200191508051906020019080838360005b838110156100ce5780820151818401526020810190506100b3565b50505050905090810190601f1680156100fb5780820380516001836020036101000a031916815260200191505b5086810385528c818151815260200191508051906020019080838360005b83811015610134578082015181840152602081019050610119565b50505050905090810190601f1680156101615780820380516001836020036101000a031916815260200191505b5086810384528b818151815260200191508051906020019080838360005b8381101561019a57808201518184015260208101905061017f565b50505050905090810190601f1680156101c75780820380516001836020036101000a031916815260200191505b5086810383528a818151815260200191508051906020019080838360005b838110156102005780820151818401526020810190506101e5565b50505050905090810190601f16801561022d5780820380516001836020036101000a031916815260200191505b50868103825288818151815260200191508051906020019080838360005b8381101561026657808201518184015260208101905061024b565b50505050905090810190601f1680156102935780820380516001836020036101000a031916815260200191505b509c5050505050505050505050505060405180910390f35b34156102b657600080fd5b6102be610655565b604051808215151515815260200191505060405180910390f35b6102e06106c3565b6102e86106c3565b6102f06106c3565b6102f86106c3565b60006103026106c3565b6000806000016000600101600060020160006003016000600401546000600501600760149054906101000a900460ff16868054600181600116156101000203166002900480601f0160208091040260200160405190810160405280929190818152602001828054600181600116156101000203166002900480156103c75780601f1061039c576101008083540402835291602001916103c7565b820191906000526020600020905b8154815290600101906020018083116103aa57829003601f168201915b50505050509650858054600181600116156101000203166002900480601f0160208091040260200160405190810160405280929190818152602001828054600181600116156101000203166002900480156104635780601f1061043857610100808354040283529160200191610463565b820191906000526020600020905b81548152906001019060200180831161044657829003601f168201915b50505050509550848054600181600116156101000203166002900480601f0160208091040260200160405190810160405280929190818152602001828054600181600116156101000203166002900480156104ff5780601f106104d4576101008083540402835291602001916104ff565b820191906000526020600020905b8154815290600101906020018083116104e257829003601f168201915b50505050509450838054600181600116156101000203166002900480601f01602080910402602001604051908101604052809291908181526020018280546001816001161561010002031660029004801561059b5780601f106105705761010080835404028352916020019161059b565b820191906000526020600020905b81548152906001019060200180831161057e57829003601f168201915b50505050509350818054600181600116156101000203166002900480601f0160208091040260200160405190810160405280929190818152602001828054600181600116156101000203166002900480156106375780601f1061060c57610100808354040283529160200191610637565b820191906000526020600020905b81548152906001019060200180831161061a57829003601f168201915b50505050509150965096509650965096509650965090919293949596565b600033600760006101000a81548173ffffffffffffffffffffffffffffffffffffffff021916908373ffffffffffffffffffffffffffffffffffffffff1602179055506001600760146101000a81548160ff021916908360018111156106b757fe5b02179055506001905090565b6020604051908101604052806000815250905600a165627a7a72305820756f6883b7769735b7f51df332d18286605a472cef89a3079e8bf42ecb8cdd000029",
  "source": "pragma solidity ^0.4.17;\r\ncontract DemoContract {\r\n    enum ContractStatus { Open, Sold }\r\n\r\n    struct ContractDetails {\r\n        string contractID;\r\n        string title;\r\n        string description;\r\n        string strikePrice;\r\n        uint timeWindow;\r\n        string dateTime;\r\n    }\r\n\r\n    ContractDetails details;\r\n    address cryptlet;\r\n    address buyer;\r\n    ContractStatus status;\r\n\r\n    function DemoContract(string _contractId, string _title, string _description, string _strikerPrice, uint _timeWindow, string _dateTime) public {\r\n        details = ContractDetails(_contractId, _title, _description, _strikerPrice, _timeWindow, _dateTime);\r\n        cryptlet = msg.sender;\r\n        status = ContractStatus.Open;\r\n    }\r\n\r\n    function getContractDetails() public constant returns (string, string, string, string, uint, string, ContractStatus) {\r\n        return (details.contractID, details.title, details.description, details.strikePrice, details.timeWindow, details.dateTime, status);\r\n    }\r\n\r\n    function buyContract() public returns (bool success) {\r\n        buyer = msg.sender;\r\n        status = ContractStatus.Sold;\r\n        return true;\r\n    }\r\n}",
  "sourcePath": "C:\\dev\\eth-test\\angular-client\\src\\solidity\\contracts\\DemoContract.sol",
  "compiler": {
    "name": "solc",
    "version": "0.4.18+commit.9cf6e910.Emscripten.clang"
  },
  "schemaVersion": "1.0.1",
  "updatedAt": "2018-01-08T03:11:00.352Z"
}