{
  "contractName": "IoTDemo",
  "abi": [
    {
      "constant": true,
      "inputs": [],
      "name": "DateTimeRecorded",
      "outputs": [
        {
          "name": "",
          "type": "uint256"
        }
      ],
      "payable": false,
      "stateMutability": "view",
      "type": "function"
    },
    {
      "constant": false,
      "inputs": [],
      "name": "Complete",
      "outputs": [],
      "payable": false,
      "stateMutability": "nonpayable",
      "type": "function"
    },
    {
      "constant": true,
      "inputs": [],
      "name": "AccelZ",
      "outputs": [
        {
          "name": "",
          "type": "int256"
        }
      ],
      "payable": false,
      "stateMutability": "view",
      "type": "function"
    },
    {
      "constant": true,
      "inputs": [],
      "name": "AccelX",
      "outputs": [
        {
          "name": "",
          "type": "int256"
        }
      ],
      "payable": false,
      "stateMutability": "view",
      "type": "function"
    },
    {
      "constant": true,
      "inputs": [],
      "name": "PreviousCounterparty",
      "outputs": [
        {
          "name": "",
          "type": "address"
        }
      ],
      "payable": false,
      "stateMutability": "view",
      "type": "function"
    },
    {
      "constant": false,
      "inputs": [
        {
          "name": "newCounterparty",
          "type": "address"
        },
        {
          "name": "newDevice",
          "type": "address"
        }
      ],
      "name": "TransferToMilwaukee",
      "outputs": [],
      "payable": false,
      "stateMutability": "nonpayable",
      "type": "function"
    },
    {
      "constant": true,
      "inputs": [],
      "name": "CurrentIoTDevice",
      "outputs": [
        {
          "name": "",
          "type": "address"
        }
      ],
      "payable": false,
      "stateMutability": "view",
      "type": "function"
    },
    {
      "constant": true,
      "inputs": [],
      "name": "ComplianceDetail",
      "outputs": [
        {
          "name": "",
          "type": "string"
        }
      ],
      "payable": false,
      "stateMutability": "view",
      "type": "function"
    },
    {
      "constant": false,
      "inputs": [
        {
          "name": "vehicleId",
          "type": "string"
        },
        {
          "name": "humidity",
          "type": "int256"
        },
        {
          "name": "temperature",
          "type": "int256"
        },
        {
          "name": "beaconData",
          "type": "string"
        },
        {
          "name": "accelX",
          "type": "int256"
        },
        {
          "name": "accelY",
          "type": "int256"
        },
        {
          "name": "accelZ",
          "type": "int256"
        }
      ],
      "name": "IngestTelemetry",
      "outputs": [],
      "payable": false,
      "stateMutability": "nonpayable",
      "type": "function"
    },
    {
      "constant": true,
      "inputs": [],
      "name": "Temperature",
      "outputs": [
        {
          "name": "",
          "type": "int256"
        }
      ],
      "payable": false,
      "stateMutability": "view",
      "type": "function"
    },
    {
      "constant": true,
      "inputs": [],
      "name": "Humidity",
      "outputs": [
        {
          "name": "",
          "type": "int256"
        }
      ],
      "payable": false,
      "stateMutability": "view",
      "type": "function"
    },
    {
      "constant": true,
      "inputs": [],
      "name": "VehicleId",
      "outputs": [
        {
          "name": "",
          "type": "string"
        }
      ],
      "payable": false,
      "stateMutability": "view",
      "type": "function"
    },
    {
      "constant": true,
      "inputs": [],
      "name": "CurrentCounterparty",
      "outputs": [
        {
          "name": "",
          "type": "address"
        }
      ],
      "payable": false,
      "stateMutability": "view",
      "type": "function"
    },
    {
      "constant": true,
      "inputs": [],
      "name": "InitiatingCounterparty",
      "outputs": [
        {
          "name": "",
          "type": "address"
        }
      ],
      "payable": false,
      "stateMutability": "view",
      "type": "function"
    },
    {
      "constant": false,
      "inputs": [
        {
          "name": "newCounterparty",
          "type": "address"
        }
      ],
      "name": "TransferToChicago",
      "outputs": [],
      "payable": false,
      "stateMutability": "nonpayable",
      "type": "function"
    },
    {
      "constant": false,
      "inputs": [],
      "name": "TransferToMinneapolis",
      "outputs": [],
      "payable": false,
      "stateMutability": "nonpayable",
      "type": "function"
    },
    {
      "constant": true,
      "inputs": [],
      "name": "ComplianceStatus",
      "outputs": [
        {
          "name": "",
          "type": "bool"
        }
      ],
      "payable": false,
      "stateMutability": "view",
      "type": "function"
    },
    {
      "constant": true,
      "inputs": [],
      "name": "AccelY",
      "outputs": [
        {
          "name": "",
          "type": "int256"
        }
      ],
      "payable": false,
      "stateMutability": "view",
      "type": "function"
    },
    {
      "constant": true,
      "inputs": [],
      "name": "State",
      "outputs": [
        {
          "name": "",
          "type": "uint8"
        }
      ],
      "payable": false,
      "stateMutability": "view",
      "type": "function"
    },
    {
      "constant": true,
      "inputs": [],
      "name": "PositionFromBeacons",
      "outputs": [
        {
          "name": "",
          "type": "string"
        }
      ],
      "payable": false,
      "stateMutability": "view",
      "type": "function"
    },
    {
      "inputs": [],
      "payable": false,
      "stateMutability": "nonpayable",
      "type": "constructor"
    }
  ],
  "bytecode": "0x60606040526000600c556064600d556000600e556064600f55341561002357600080fd5b6001601060006101000a81548160ff02191690831515021790555033600060016101000a81548173ffffffffffffffffffffffffffffffffffffffff021916908373ffffffffffffffffffffffffffffffffffffffff160217905550600060019054906101000a900473ffffffffffffffffffffffffffffffffffffffff16600160006101000a81548173ffffffffffffffffffffffffffffffffffffffff021916908373ffffffffffffffffffffffffffffffffffffffff16021790555060008060006101000a81548160ff0219169083600581111561010057fe5b02179055506113aa806101146000396000f300606060405260043610610111576000357c0100000000000000000000000000000000000000000000000000000000900463ffffffff16806287dd5d1461011657806301b7dcb41461013f578063033b803614610154578063220766771461017d57806333644110146101a6578063336f67f4146101fb578063362fb56814610253578063678cbd80146102a857806368b63588146103365780637152afa314610403578063a57ee2941461042c578063b169fc6814610455578063b7310103146104e3578063c7c5940714610538578063d161ba561461058d578063d414328e146105c6578063db41f804146105db578063ee20752114610608578063f1b6dccd14610631578063f7ea2f4314610668575b600080fd5b341561012157600080fd5b6101296106f6565b6040518082815260200191505060405180910390f35b341561014a57600080fd5b6101526106fc565b005b341561015f57600080fd5b6101676108b2565b6040518082815260200191505060405180910390f35b341561018857600080fd5b6101906108b8565b6040518082815260200191505060405180910390f35b34156101b157600080fd5b6101b96108be565b604051808273ffffffffffffffffffffffffffffffffffffffff1673ffffffffffffffffffffffffffffffffffffffff16815260200191505060405180910390f35b341561020657600080fd5b610251600480803573ffffffffffffffffffffffffffffffffffffffff1690602001909190803573ffffffffffffffffffffffffffffffffffffffff169060200190919050506108e4565b005b341561025e57600080fd5b610266610b34565b604051808273ffffffffffffffffffffffffffffffffffffffff1673ffffffffffffffffffffffffffffffffffffffff16815260200191505060405180910390f35b34156102b357600080fd5b6102bb610b5a565b6040518080602001828103825283818151815260200191508051906020019080838360005b838110156102fb5780820151818401526020810190506102e0565b50505050905090810190601f1680156103285780820380516001836020036101000a031916815260200191505b509250505060405180910390f35b341561034157600080fd5b610401600480803590602001908201803590602001908080601f0160208091040260200160405190810160405280939291908181526020018383808284378201915050505050509190803590602001909190803590602001909190803590602001908201803590602001908080601f01602080910402602001604051908101604052809392919081815260200183838082843782019150505050505091908035906020019091908035906020019091908035906020019091905050610bf8565b005b341561040e57600080fd5b610416610d9a565b6040518082815260200191505060405180910390f35b341561043757600080fd5b61043f610da0565b6040518082815260200191505060405180910390f35b341561046057600080fd5b610468610da6565b6040518080602001828103825283818151815260200191508051906020019080838360005b838110156104a857808201518184015260208101905061048d565b50505050905090810190601f1680156104d55780820380516001836020036101000a031916815260200191505b509250505060405180910390f35b34156104ee57600080fd5b6104f6610e44565b604051808273ffffffffffffffffffffffffffffffffffffffff1673ffffffffffffffffffffffffffffffffffffffff16815260200191505060405180910390f35b341561054357600080fd5b61054b610e6a565b604051808273ffffffffffffffffffffffffffffffffffffffff1673ffffffffffffffffffffffffffffffffffffffff16815260200191505060405180910390f35b341561059857600080fd5b6105c4600480803573ffffffffffffffffffffffffffffffffffffffff16906020019091905050610e90565b005b34156105d157600080fd5b6105d961109e565b005b34156105e657600080fd5b6105ee611210565b604051808215151515815260200191505060405180910390f35b341561061357600080fd5b61061b611223565b6040518082815260200191505060405180910390f35b341561063c57600080fd5b610644611229565b6040518082600581111561065457fe5b60ff16815260200191505060405180910390f35b341561067357600080fd5b61067b61123b565b6040518080602001828103825283818151815260200191508051906020019080838360005b838110156106bb5780820151818401526020810190506106a0565b50505050905090810190601f1680156106e85780820380516001836020036101000a031916815260200191505b509250505060405180910390f35b600b5481565b3373ffffffffffffffffffffffffffffffffffffffff16600160009054906101000a900473ffffffffffffffffffffffffffffffffffffffff1673ffffffffffffffffffffffffffffffffffffffff1614158061077d57506004600581111561076157fe5b6000809054906101000a900460ff16600581111561077b57fe5b145b806107ab575060058081111561078f57fe5b6000809054906101000a900460ff1660058111156107a957fe5b145b156107b557600080fd5b600360058111156107c257fe5b6000809054906101000a900460ff1660058111156107dc57fe5b1415156107e857600080fd5b60046000806101000a81548160ff0219169083600581111561080657fe5b0217905550600160009054906101000a900473ffffffffffffffffffffffffffffffffffffffff16600260006101000a81548173ffffffffffffffffffffffffffffffffffffffff021916908373ffffffffffffffffffffffffffffffffffffffff1602179055506000600160006101000a81548173ffffffffffffffffffffffffffffffffffffffff021916908373ffffffffffffffffffffffffffffffffffffffff160217905550565b60095481565b60075481565b600260009054906101000a900473ffffffffffffffffffffffffffffffffffffffff1681565b3373ffffffffffffffffffffffffffffffffffffffff16600160009054906101000a900473ffffffffffffffffffffffffffffffffffffffff1673ffffffffffffffffffffffffffffffffffffffff1614158061098e5750600360009054906101000a900473ffffffffffffffffffffffffffffffffffffffff1673ffffffffffffffffffffffffffffffffffffffff168273ffffffffffffffffffffffffffffffffffffffff16145b1561099857600080fd5b600160058111156109a557fe5b6000809054906101000a900460ff1660058111156109bf57fe5b1415806109f05750600460058111156109d457fe5b6000809054906101000a900460ff1660058111156109ee57fe5b145b80610a1e5750600580811115610a0257fe5b6000809054906101000a900460ff166005811115610a1c57fe5b145b15610a2857600080fd5b60026000806101000a81548160ff02191690836005811115610a4657fe5b0217905550600160009054906101000a900473ffffffffffffffffffffffffffffffffffffffff16600260006101000a81548173ffffffffffffffffffffffffffffffffffffffff021916908373ffffffffffffffffffffffffffffffffffffffff16021790555081600160006101000a81548173ffffffffffffffffffffffffffffffffffffffff021916908373ffffffffffffffffffffffffffffffffffffffff16021790555080600360006101000a81548173ffffffffffffffffffffffffffffffffffffffff021916908373ffffffffffffffffffffffffffffffffffffffff1602179055505050565b600360009054906101000a900473ffffffffffffffffffffffffffffffffffffffff1681565b60118054600181600116156101000203166002900480601f016020809104026020016040519081016040528092919081815260200182805460018160011615610100020316600290048015610bf05780601f10610bc557610100808354040283529160200191610bf0565b820191906000526020600020905b815481529060010190602001808311610bd357829003601f168201915b505050505081565b42600b819055508660049080519060200190610c159291906112d9565b50856006819055508460058190555083600a9080519060200190610c3a9291906112d9565b50826007819055508160088190555080600981905550600f54861380610c615750600e5486125b15610cd2576040805190810160405280601c81526020017f48756d69646974792076616c7565206f7574206f662072616e67652e0000000081525060119080519060200190610cb19291906112d9565b506000601060006101000a81548160ff021916908315150217905550610d51565b600d54851380610ce35750600c5485125b15610d50576040805190810160405280601f81526020017f54656d70657261747572652076616c7565206f7574206f662072616e67652e0081525060119080519060200190610d339291906112d9565b506000601060006101000a81548160ff0219169083151502179055505b5b60001515601060009054906101000a900460ff1615151415610d915760056000806101000a81548160ff02191690836005811115610d8b57fe5b02179055505b50505050505050565b60055481565b60065481565b60048054600181600116156101000203166002900480601f016020809104026020016040519081016040528092919081815260200182805460018160011615610100020316600290048015610e3c5780601f10610e1157610100808354040283529160200191610e3c565b820191906000526020600020905b815481529060010190602001808311610e1f57829003601f168201915b505050505081565b600160009054906101000a900473ffffffffffffffffffffffffffffffffffffffff1681565b600060019054906101000a900473ffffffffffffffffffffffffffffffffffffffff1681565b3373ffffffffffffffffffffffffffffffffffffffff16600160009054906101000a900473ffffffffffffffffffffffffffffffffffffffff1673ffffffffffffffffffffffffffffffffffffffff16141580610f3a5750600360009054906101000a900473ffffffffffffffffffffffffffffffffffffffff1673ffffffffffffffffffffffffffffffffffffffff168173ffffffffffffffffffffffffffffffffffffffff16145b15610f4457600080fd5b60026005811115610f5157fe5b6000809054906101000a900460ff166005811115610f6b57fe5b141580610f9c575060046005811115610f8057fe5b6000809054906101000a900460ff166005811115610f9a57fe5b145b80610fca5750600580811115610fae57fe5b6000809054906101000a900460ff166005811115610fc857fe5b145b15610fd457600080fd5b60036000806101000a81548160ff02191690836005811115610ff257fe5b0217905550600160009054906101000a900473ffffffffffffffffffffffffffffffffffffffff16600260006101000a81548173ffffffffffffffffffffffffffffffffffffffff021916908373ffffffffffffffffffffffffffffffffffffffff16021790555080600160006101000a81548173ffffffffffffffffffffffffffffffffffffffff021916908373ffffffffffffffffffffffffffffffffffffffff16021790555050565b3373ffffffffffffffffffffffffffffffffffffffff16600060019054906101000a900473ffffffffffffffffffffffffffffffffffffffff1673ffffffffffffffffffffffffffffffffffffffff161415156110fa57600080fd5b6004600581111561110757fe5b6000809054906101000a900460ff16600581111561112157fe5b1480611150575060058081111561113457fe5b6000809054906101000a900460ff16600581111561114e57fe5b145b1561115a57600080fd5b6000600581111561116757fe5b6000809054906101000a900460ff16600581111561118157fe5b14156111ab5760016000806101000a81548160ff021916908360058111156111a557fe5b02179055505b600160009054906101000a900473ffffffffffffffffffffffffffffffffffffffff16600260006101000a81548173ffffffffffffffffffffffffffffffffffffffff021916908373ffffffffffffffffffffffffffffffffffffffff160217905550565b601060009054906101000a900460ff1681565b60085481565b6000809054906101000a900460ff1681565b600a8054600181600116156101000203166002900480601f0160208091040260200160405190810160405280929190818152602001828054600181600116156101000203166002900480156112d15780601f106112a6576101008083540402835291602001916112d1565b820191906000526020600020905b8154815290600101906020018083116112b457829003601f168201915b505050505081565b828054600181600116156101000203166002900490600052602060002090601f016020900481019282601f1061131a57805160ff1916838001178555611348565b82800160010185558215611348579182015b8281111561134757825182559160200191906001019061132c565b5b5090506113559190611359565b5090565b61137b91905b8082111561137757600081600090555060010161135f565b5090565b905600a165627a7a72305820714c2c067dc400b80f8a89c9403544ca05c6e64780663b80179e8fbb6267c2790029",
  "source": "pragma solidity ^0.4.18;\r\n\r\ncontract IoTDemo {\r\n\r\n    enum StateType \r\n    { \r\n        Created, \r\n        InTransitFromMinneapolis,\r\n        InTransitFromMilwaukee,\r\n        ReceivedInChicago, \r\n        Completed, \r\n        OutOfCompliance \r\n    }\r\n\r\n    StateType public State;\r\n\r\n    address public InitiatingCounterparty;\r\n    address public CurrentCounterparty;\r\n    address public PreviousCounterparty;\r\n    address public CurrentIoTDevice;\r\n\r\n    string public VehicleId;\r\n    int public Temperature;\r\n    int public Humidity;\r\n    int public AccelX;\r\n    int public AccelY;\r\n    int public AccelZ;\r\n    string public PositionFromBeacons;\r\n    uint public DateTimeRecorded;\r\n\r\n    int private MinTemperature = 0;\r\n    int private MaxTemperature = 100;\r\n    int private MinHumidity = 0;\r\n    int private MaxHumidity = 100; \r\n\r\n    bool public ComplianceStatus;\r\n    string public ComplianceDetail;\r\n\r\n    function IoTDemo() public {\r\n        ComplianceStatus = true;\r\n        InitiatingCounterparty = msg.sender;\r\n        CurrentCounterparty = InitiatingCounterparty;\r\n        State = StateType.Created;\r\n    }\r\n\r\n    function IngestTelemetry(string vehicleId, int humidity, int temperature, string beaconData, int accelX, int accelY, int accelZ) public {\r\n        DateTimeRecorded = now;\r\n        VehicleId = vehicleId;\r\n        Humidity = humidity;\r\n        Temperature = temperature;\r\n        PositionFromBeacons = beaconData;\r\n        AccelX = accelX;\r\n        AccelY = accelY;\r\n        AccelZ = accelZ;\r\n        \r\n        if (humidity > MaxHumidity || humidity < MinHumidity) {\r\n            ComplianceDetail = \"Humidity value out of range.\";\r\n            ComplianceStatus = false;\r\n        } else if (temperature > MaxTemperature || temperature < MinTemperature) {\r\n            ComplianceDetail = \"Temperature value out of range.\";\r\n            ComplianceStatus = false;\r\n        }\r\n\r\n        if (ComplianceStatus == false) {\r\n            State = StateType.OutOfCompliance;\r\n        }\r\n    }\r\n\r\n    function TransferToMinneapolis() public {\r\n        if (InitiatingCounterparty != msg.sender) {\r\n            revert();\r\n        }\r\n\r\n        if (State == StateType.Completed || State == StateType.OutOfCompliance) {\r\n            revert();\r\n        }\r\n\r\n        if (State == StateType.Created) {\r\n            State = StateType.InTransitFromMinneapolis;\r\n        }\r\n\r\n        PreviousCounterparty = CurrentCounterparty;\r\n    }\r\n\r\n    function TransferToMilwaukee(address newCounterparty, address newDevice) public {\r\n        if (CurrentCounterparty != msg.sender || newCounterparty == CurrentIoTDevice) {\r\n            revert();\r\n        }\r\n         \r\n        if (State != StateType.InTransitFromMinneapolis || State == StateType.Completed || State == StateType.OutOfCompliance) {\r\n            revert();\r\n        }\r\n\r\n        State = StateType.InTransitFromMilwaukee;\r\n        \r\n        PreviousCounterparty = CurrentCounterparty;\r\n        CurrentCounterparty = newCounterparty;\r\n        CurrentIoTDevice = newDevice;\r\n    }\r\n\r\n    function TransferToChicago(address newCounterparty) public {\r\n        if (CurrentCounterparty != msg.sender || newCounterparty == CurrentIoTDevice) {\r\n            revert();\r\n        }\r\n\r\n        if (State != StateType.InTransitFromMilwaukee || State == StateType.Completed || State == StateType.OutOfCompliance) {\r\n            revert();\r\n        }\r\n\r\n        State = StateType.ReceivedInChicago;\r\n    \r\n        PreviousCounterparty = CurrentCounterparty;\r\n        CurrentCounterparty = newCounterparty;\r\n    }\r\n\r\n    function Complete() public {\r\n        if (CurrentCounterparty != msg.sender || State == StateType.Completed || State == StateType.OutOfCompliance) {\r\n            revert();\r\n        }\r\n\r\n        if (State != StateType.ReceivedInChicago) {\r\n            revert();\r\n        }\r\n\r\n        State = StateType.Completed;\r\n        PreviousCounterparty = CurrentCounterparty;\r\n        CurrentCounterparty = 0x0;\r\n    }\r\n}",
  "sourcePath": "C:\\dev\\eth-test\\angular-client\\src\\solidity\\contracts\\IoTDemo.sol",
  "compiler": {
    "name": "solc",
    "version": "0.4.18+commit.9cf6e910.Emscripten.clang"
  },
  "schemaVersion": "1.0.1",
  "updatedAt": "2018-06-06T05:43:51.491Z"
}